:020000020000FC
:100000002DC0189510C01895189518951895189525
:100010001895189518951895189518951895189578
:1000200018951895189514D1712F107F103A78F003
:10003000172F1F7017305CF470936000672F6F707C
:1000400030D12FD12ED104D1611709F4689438E44E
:100050004EECE6D037E84EECE3D018950FE50DBF37
:1000600004E00EBFE0E6F0E000270193F430E9F78A
:10007000E036D9F7EE27FF27EEE1FF27EA95F08378
:10008000E9F707B3006407BB07B3006807BB01B318
:10009000076001BB01B3006E01BB07B3076007BB7C
:1000A00007B3086307BB04B3076004BB04B308636A
:1000B00004BB89D010E015BF16D11AD110E81BBFC0
:1000C0007894FF27EE273AD19A3A19F400E808BB52
:1000D00002C000E008BB7894E89485B7876085BFCC
:1000E00011D1000000000000DCD016D185B7887F58
:1000F00085BFF89436F780916000982F907F903FED
:1001000040F0FF27EE2780FF9FEF80FD9AEA0ED197
:10011000D8CF907F00E418B3102718BB903A49F06D
:10012000903B91F0903CD9F0903D21F1903E69F1E7
:10013000C8CF982F9F7094301CF400EA02BB30C0E7
:1001400000E602BB93502CC0982F9F7094301CF493
:1001500005E008BB25C003E008BB935021C0982FE1
:100160009F7094301CF408E208BB1AC008E108BB79
:10017000935016C0982F9F7094301CF405E005BB77
:100180000FC003E005BB93500BC0982F9F709430B5
:100190001CF408E205BB04C008E105BB935000C095
:1001A00086D091509030E1F700E002BB00E008BB40
:1001B00000E008BB00E005BB00E005BB00E418B3AD
:1001C000102718BB7ECF929A919A90988A9A899A12
:1001D0008C988B98889A00000000000030E040E086
:1001E0001FD03CE849E81CD030E446EA19D037E497
:1001F00048EC16D03BE946EC13D03AE244EC10D080
:1002000030E442EC0DD030E840EC0AD034E84EEC5B
:1002100007D037E84EEC04D031E840EC01D0089527
:100220000F939098929800E190980000000047FD8D
:10023000919A47FF919800000000909A00000000FA
:10024000330F441F0A9581F79098929A0F91089561
:100250000F939098919892980000000000E1909A76
:100260000000909800000A95D1F7112708E0110FBF
:1002700084991160909A0000909800000A95B9F74F
:10028000929A0F9108950F931F932F9300E315E710
:1002900020E0015010402040E0F72F911F910F9176
:1002A00008950F9308EC0A95F1F70F9108950F93B5
:1002B0001F932F9300E818E321E0015010402040E5
:1002C000E0F72F911F910F9108950F931F932F9394
:1002D00000E015E32CE001501040204070F72F9112
:1002E0001F910F91089505B70460056005BF08953B
:1002F000F8941F93A89518E111BD1FE011BD1F913F
:1003000078940895F8941F93A89518E111BD1127CA
:1003100011BD1F9178940895F8941F93A89518E142
:1003200011BD1FE011BD1F9178940895E199FECF92
:10033000FFBBEEBB9DBBE29AE19A0895E199FECF27
:0A034000FFBBEEBBE09A9DB30895E9
:00000001FF
